{
  "_format": "hh-sol-artifact-1",
  "contractName": "GameAchievement",
  "sourceName": "contracts/GameAchievement.sol",
  "abi": [
    {
      "inputs": [],
      "stateMutability": "nonpayable",
      "type": "constructor"
    },
    {
      "anonymous": false,
      "inputs": [
        {
          "indexed": true,
          "internalType": "address",
          "name": "owner",
          "type": "address"
        },
        {
          "indexed": true,
          "internalType": "address",
          "name": "approved",
          "type": "address"
        },
        {
          "indexed": true,
          "internalType": "uint256",
          "name": "tokenId",
          "type": "uint256"
        }
      ],
      "name": "Approval",
      "type": "event"
    },
    {
      "anonymous": false,
      "inputs": [
        {
          "indexed": true,
          "internalType": "address",
          "name": "owner",
          "type": "address"
        },
        {
          "indexed": true,
          "internalType": "address",
          "name": "operator",
          "type": "address"
        },
        {
          "indexed": false,
          "internalType": "bool",
          "name": "approved",
          "type": "bool"
        }
      ],
      "name": "ApprovalForAll",
      "type": "event"
    },
    {
      "anonymous": false,
      "inputs": [
        {
          "indexed": true,
          "internalType": "address",
          "name": "from",
          "type": "address"
        },
        {
          "indexed": true,
          "internalType": "address",
          "name": "to",
          "type": "address"
        },
        {
          "indexed": true,
          "internalType": "uint256",
          "name": "tokenId",
          "type": "uint256"
        }
      ],
      "name": "Transfer",
      "type": "event"
    },
    {
      "inputs": [
        {
          "internalType": "address",
          "name": "to",
          "type": "address"
        },
        {
          "internalType": "uint256",
          "name": "tokenId",
          "type": "uint256"
        }
      ],
      "name": "approve",
      "outputs": [],
      "stateMutability": "nonpayable",
      "type": "function"
    },
    {
      "inputs": [
        {
          "internalType": "address",
          "name": "owner",
          "type": "address"
        }
      ],
      "name": "balanceOf",
      "outputs": [
        {
          "internalType": "uint256",
          "name": "",
          "type": "uint256"
        }
      ],
      "stateMutability": "view",
      "type": "function"
    },
    {
      "inputs": [
        {
          "internalType": "uint256",
          "name": "tokenId",
          "type": "uint256"
        }
      ],
      "name": "burn",
      "outputs": [],
      "stateMutability": "nonpayable",
      "type": "function"
    },
    {
      "inputs": [
        {
          "internalType": "uint256",
          "name": "tokenId",
          "type": "uint256"
        }
      ],
      "name": "getApproved",
      "outputs": [
        {
          "internalType": "address",
          "name": "",
          "type": "address"
        }
      ],
      "stateMutability": "view",
      "type": "function"
    },
    {
      "inputs": [
        {
          "internalType": "address",
          "name": "owner",
          "type": "address"
        },
        {
          "internalType": "address",
          "name": "operator",
          "type": "address"
        }
      ],
      "name": "isApprovedForAll",
      "outputs": [
        {
          "internalType": "bool",
          "name": "",
          "type": "bool"
        }
      ],
      "stateMutability": "view",
      "type": "function"
    },
    {
      "inputs": [],
      "name": "name",
      "outputs": [
        {
          "internalType": "string",
          "name": "",
          "type": "string"
        }
      ],
      "stateMutability": "view",
      "type": "function"
    },
    {
      "inputs": [
        {
          "internalType": "uint256",
          "name": "tokenId",
          "type": "uint256"
        }
      ],
      "name": "ownerOf",
      "outputs": [
        {
          "internalType": "address",
          "name": "",
          "type": "address"
        }
      ],
      "stateMutability": "view",
      "type": "function"
    },
    {
      "inputs": [
        {
          "internalType": "address",
          "name": "to",
          "type": "address"
        },
        {
          "internalType": "string",
          "name": "uri",
          "type": "string"
        }
      ],
      "name": "safeMint",
      "outputs": [],
      "stateMutability": "nonpayable",
      "type": "function"
    },
    {
      "inputs": [
        {
          "internalType": "address",
          "name": "from",
          "type": "address"
        },
        {
          "internalType": "address",
          "name": "to",
          "type": "address"
        },
        {
          "internalType": "uint256",
          "name": "tokenId",
          "type": "uint256"
        }
      ],
      "name": "safeTransferFrom",
      "outputs": [],
      "stateMutability": "nonpayable",
      "type": "function"
    },
    {
      "inputs": [
        {
          "internalType": "address",
          "name": "from",
          "type": "address"
        },
        {
          "internalType": "address",
          "name": "to",
          "type": "address"
        },
        {
          "internalType": "uint256",
          "name": "tokenId",
          "type": "uint256"
        },
        {
          "internalType": "bytes",
          "name": "data",
          "type": "bytes"
        }
      ],
      "name": "safeTransferFrom",
      "outputs": [],
      "stateMutability": "nonpayable",
      "type": "function"
    },
    {
      "inputs": [
        {
          "internalType": "address",
          "name": "operator",
          "type": "address"
        },
        {
          "internalType": "bool",
          "name": "approved",
          "type": "bool"
        }
      ],
      "name": "setApprovalForAll",
      "outputs": [],
      "stateMutability": "nonpayable",
      "type": "function"
    },
    {
      "inputs": [
        {
          "internalType": "bytes4",
          "name": "interfaceId",
          "type": "bytes4"
        }
      ],
      "name": "supportsInterface",
      "outputs": [
        {
          "internalType": "bool",
          "name": "",
          "type": "bool"
        }
      ],
      "stateMutability": "view",
      "type": "function"
    },
    {
      "inputs": [],
      "name": "symbol",
      "outputs": [
        {
          "internalType": "string",
          "name": "",
          "type": "string"
        }
      ],
      "stateMutability": "view",
      "type": "function"
    },
    {
      "inputs": [
        {
          "internalType": "uint256",
          "name": "index",
          "type": "uint256"
        }
      ],
      "name": "tokenByIndex",
      "outputs": [
        {
          "internalType": "uint256",
          "name": "",
          "type": "uint256"
        }
      ],
      "stateMutability": "view",
      "type": "function"
    },
    {
      "inputs": [
        {
          "internalType": "address",
          "name": "owner",
          "type": "address"
        },
        {
          "internalType": "uint256",
          "name": "index",
          "type": "uint256"
        }
      ],
      "name": "tokenOfOwnerByIndex",
      "outputs": [
        {
          "internalType": "uint256",
          "name": "",
          "type": "uint256"
        }
      ],
      "stateMutability": "view",
      "type": "function"
    },
    {
      "inputs": [
        {
          "internalType": "uint256",
          "name": "tokenId",
          "type": "uint256"
        }
      ],
      "name": "tokenURI",
      "outputs": [
        {
          "internalType": "string",
          "name": "",
          "type": "string"
        }
      ],
      "stateMutability": "view",
      "type": "function"
    },
    {
      "inputs": [],
      "name": "totalSupply",
      "outputs": [
        {
          "internalType": "uint256",
          "name": "",
          "type": "uint256"
        }
      ],
      "stateMutability": "view",
      "type": "function"
    },
    {
      "inputs": [
        {
          "internalType": "address",
          "name": "from",
          "type": "address"
        },
        {
          "internalType": "address",
          "name": "to",
          "type": "address"
        },
        {
          "internalType": "uint256",
          "name": "tokenId",
          "type": "uint256"
        }
      ],
      "name": "transferFrom",
      "outputs": [],
      "stateMutability": "nonpayable",
      "type": "function"
    }
  ],
  "bytecode": "0x60806040523480156200001157600080fd5b506040518060400160405280601081526020017f47616d6520416368696576656d656e74000000000000000000000000000000008152506040518060400160405280600481526020017f474143480000000000000000000000000000000000000000000000000000000081525081600090816200008f919062000324565b508060019081620000a1919062000324565b5050506200040b565b600081519050919050565b7f4e487b7100000000000000000000000000000000000000000000000000000000600052604160045260246000fd5b7f4e487b7100000000000000000000000000000000000000000000000000000000600052602260045260246000fd5b600060028204905060018216806200012c57607f821691505b602082108103620001425762000141620000e4565b5b50919050565b60008190508160005260206000209050919050565b60006020601f8301049050919050565b600082821b905092915050565b600060088302620001ac7fffffffffffffffffffffffffffffffffffffffffffffffffffffffffffffffff826200016d565b620001b886836200016d565b95508019841693508086168417925050509392505050565b6000819050919050565b6000819050919050565b600062000205620001ff620001f984620001d0565b620001da565b620001d0565b9050919050565b6000819050919050565b6200022183620001e4565b6200023962000230826200020c565b8484546200017a565b825550505050565b600090565b6200025062000241565b6200025d81848462000216565b505050565b5b8181101562000285576200027960008262000246565b60018101905062000263565b5050565b601f821115620002d4576200029e8162000148565b620002a9846200015d565b81016020851015620002b9578190505b620002d1620002c8856200015d565b83018262000262565b50505b505050565b600082821c905092915050565b6000620002f960001984600802620002d9565b1980831691505092915050565b6000620003148383620002e6565b9150826002028217905092915050565b6200032f82620000aa565b67ffffffffffffffff8111156200034b576200034a620000b5565b5b62000357825462000113565b6200036482828562000289565b600060209050601f8311600181146200039c576000841562000387578287015190505b62000393858262000306565b86555062000403565b601f198416620003ac8662000148565b60005b82811015620003d657848901518255600182019150602085019450602081019050620003af565b86831015620003f65784890151620003f2601f891682620002e6565b8355505b6001600288020188555050505b505050505050565b6137d4806200041b6000396000f3fe608060405234801561001057600080fd5b50600436106101165760003560e01c80634f6ccce7116100a2578063a22cb46511610071578063a22cb46514610305578063b88d4fde14610321578063c87b56dd1461033d578063d204c45e1461036d578063e985e9c51461038957610116565b80634f6ccce7146102575780636352211e1461028757806370a08231146102b757806395d89b41146102e757610116565b806318160ddd116100e957806318160ddd146101b557806323b872dd146101d35780632f745c59146101ef57806342842e0e1461021f57806342966c681461023b57610116565b806301ffc9a71461011b57806306fdde031461014b578063081812fc14610169578063095ea7b314610199575b600080fd5b61013560048036038101906101309190612418565b6103b9565b6040516101429190612460565b60405180910390f35b6101536103cb565b604051610160919061250b565b60405180910390f35b610183600480360381019061017e9190612563565b61045d565b60405161019091906125d1565b60405180910390f35b6101b360048036038101906101ae9190612618565b6104a3565b005b6101bd6105ba565b6040516101ca9190612667565b60405180910390f35b6101ed60048036038101906101e89190612682565b6105c7565b005b61020960048036038101906102049190612618565b610627565b6040516102169190612667565b60405180910390f35b61023960048036038101906102349190612682565b6106cc565b005b61025560048036038101906102509190612563565b6106ec565b005b610271600480360381019061026c9190612563565b610748565b60405161027e9190612667565b60405180910390f35b6102a1600480360381019061029c9190612563565b6107b9565b6040516102ae91906125d1565b60405180910390f35b6102d160048036038101906102cc91906126d5565b61083f565b6040516102de9190612667565b60405180910390f35b6102ef6108f6565b6040516102fc919061250b565b60405180910390f35b61031f600480360381019061031a919061272e565b610988565b005b61033b600480360381019061033691906128a3565b61099e565b005b61035760048036038101906103529190612563565b610a00565b604051610364919061250b565b60405180910390f35b610387600480360381019061038291906129c7565b610a12565b005b6103a3600480360381019061039e9190612a23565b610a43565b6040516103b09190612460565b60405180910390f35b60006103c482610ad7565b9050919050565b6060600080546103da90612a92565b80601f016020809104026020016040519081016040528092919081815260200182805461040690612a92565b80156104535780601f1061042857610100808354040283529160200191610453565b820191906000526020600020905b81548152906001019060200180831161043657829003601f168201915b5050505050905090565b600061046882610b51565b6004600083815260200190815260200160002060009054906101000a900473ffffffffffffffffffffffffffffffffffffffff169050919050565b60006104ae826107b9565b90508073ffffffffffffffffffffffffffffffffffffffff168373ffffffffffffffffffffffffffffffffffffffff160361051e576040517f08c379a000000000000000000000000000000000000000000000000000000000815260040161051590612b35565b60405180910390fd5b8073ffffffffffffffffffffffffffffffffffffffff1661053d610b9c565b73ffffffffffffffffffffffffffffffffffffffff16148061056c575061056b81610566610b9c565b610a43565b5b6105ab576040517f08c379a00000000000000000000000000000000000000000000000000000000081526004016105a290612bc7565b60405180910390fd5b6105b58383610ba4565b505050565b6000600880549050905090565b6105d86105d2610b9c565b82610c5d565b610617576040517f08c379a000000000000000000000000000000000000000000000000000000000815260040161060e90612c59565b60405180910390fd5b610622838383610cf2565b505050565b60006106328361083f565b8210610673576040517f08c379a000000000000000000000000000000000000000000000000000000000815260040161066a90612ceb565b60405180910390fd5b600660008473ffffffffffffffffffffffffffffffffffffffff1673ffffffffffffffffffffffffffffffffffffffff168152602001908152602001600020600083815260200190815260200160002054905092915050565b6106e78383836040518060200160405280600081525061099e565b505050565b6106fd6106f7610b9c565b82610c5d565b61073c576040517f08c379a000000000000000000000000000000000000000000000000000000000815260040161073390612c59565b60405180910390fd5b61074581610feb565b50565b60006107526105ba565b8210610793576040517f08c379a000000000000000000000000000000000000000000000000000000000815260040161078a90612d7d565b60405180910390fd5b600882815481106107a7576107a6612d9d565b5b90600052602060002001549050919050565b6000806107c583610ff7565b9050600073ffffffffffffffffffffffffffffffffffffffff168173ffffffffffffffffffffffffffffffffffffffff1603610836576040517f08c379a000000000000000000000000000000000000000000000000000000000815260040161082d90612e18565b60405180910390fd5b80915050919050565b60008073ffffffffffffffffffffffffffffffffffffffff168273ffffffffffffffffffffffffffffffffffffffff16036108af576040517f08c379a00000000000000000000000000000000000000000000000000000000081526004016108a690612eaa565b60405180910390fd5b600360008373ffffffffffffffffffffffffffffffffffffffff1673ffffffffffffffffffffffffffffffffffffffff168152602001908152602001600020549050919050565b60606001805461090590612a92565b80601f016020809104026020016040519081016040528092919081815260200182805461093190612a92565b801561097e5780601f106109535761010080835404028352916020019161097e565b820191906000526020600020905b81548152906001019060200180831161096157829003601f168201915b5050505050905090565b61099a610993610b9c565b8383611034565b5050565b6109af6109a9610b9c565b83610c5d565b6109ee576040517f08c379a00000000000000000000000000000000000000000000000000000000081526004016109e590612c59565b60405180910390fd5b6109fa848484846111a0565b50505050565b6060610a0b826111fc565b9050919050565b6000610a1e600b61130e565b9050610a2a600b61131c565b610a348382611332565b610a3e8183611350565b505050565b6000600560008473ffffffffffffffffffffffffffffffffffffffff1673ffffffffffffffffffffffffffffffffffffffff16815260200190815260200160002060008373ffffffffffffffffffffffffffffffffffffffff1673ffffffffffffffffffffffffffffffffffffffff16815260200190815260200160002060009054906101000a900460ff16905092915050565b60007f780e9d63000000000000000000000000000000000000000000000000000000007bffffffffffffffffffffffffffffffffffffffffffffffffffffffff1916827bffffffffffffffffffffffffffffffffffffffffffffffffffffffff19161480610b4a5750610b49826113bd565b5b9050919050565b610b5a8161149f565b610b99576040517f08c379a0000000000000000000000000000000000000000000000000000000008152600401610b9090612e18565b60405180910390fd5b50565b600033905090565b816004600083815260200190815260200160002060006101000a81548173ffffffffffffffffffffffffffffffffffffffff021916908373ffffffffffffffffffffffffffffffffffffffff160217905550808273ffffffffffffffffffffffffffffffffffffffff16610c17836107b9565b73ffffffffffffffffffffffffffffffffffffffff167f8c5be1e5ebec7d5bd14f71427d1e84f3dd0314c0f7b2291e5b200ac8c7c3b92560405160405180910390a45050565b600080610c69836107b9565b90508073ffffffffffffffffffffffffffffffffffffffff168473ffffffffffffffffffffffffffffffffffffffff161480610cab5750610caa8185610a43565b5b80610ce957508373ffffffffffffffffffffffffffffffffffffffff16610cd18461045d565b73ffffffffffffffffffffffffffffffffffffffff16145b91505092915050565b8273ffffffffffffffffffffffffffffffffffffffff16610d12826107b9565b73ffffffffffffffffffffffffffffffffffffffff1614610d68576040517f08c379a0000000000000000000000000000000000000000000000000000000008152600401610d5f90612f3c565b60405180910390fd5b600073ffffffffffffffffffffffffffffffffffffffff168273ffffffffffffffffffffffffffffffffffffffff1603610dd7576040517f08c379a0000000000000000000000000000000000000000000000000000000008152600401610dce90612fce565b60405180910390fd5b610de483838360016114e0565b8273ffffffffffffffffffffffffffffffffffffffff16610e04826107b9565b73ffffffffffffffffffffffffffffffffffffffff1614610e5a576040517f08c379a0000000000000000000000000000000000000000000000000000000008152600401610e5190612f3c565b60405180910390fd5b6004600082815260200190815260200160002060006101000a81549073ffffffffffffffffffffffffffffffffffffffff02191690556001600360008573ffffffffffffffffffffffffffffffffffffffff1673ffffffffffffffffffffffffffffffffffffffff168152602001908152602001600020600082825403925050819055506001600360008473ffffffffffffffffffffffffffffffffffffffff1673ffffffffffffffffffffffffffffffffffffffff16815260200190815260200160002060008282540192505081905550816002600083815260200190815260200160002060006101000a81548173ffffffffffffffffffffffffffffffffffffffff021916908373ffffffffffffffffffffffffffffffffffffffff160217905550808273ffffffffffffffffffffffffffffffffffffffff168473ffffffffffffffffffffffffffffffffffffffff167fddf252ad1be2c89b69c2b068fc378daa952ba7f163c4a11628f55a4df523b3ef60405160405180910390a4610fe683838360016114f2565b505050565b610ff4816114f8565b50565b60006002600083815260200190815260200160002060009054906101000a900473ffffffffffffffffffffffffffffffffffffffff169050919050565b8173ffffffffffffffffffffffffffffffffffffffff168373ffffffffffffffffffffffffffffffffffffffff16036110a2576040517f08c379a00000000000000000000000000000000000000000000000000000000081526004016110999061303a565b60405180910390fd5b80600560008573ffffffffffffffffffffffffffffffffffffffff1673ffffffffffffffffffffffffffffffffffffffff16815260200190815260200160002060008473ffffffffffffffffffffffffffffffffffffffff1673ffffffffffffffffffffffffffffffffffffffff16815260200190815260200160002060006101000a81548160ff0219169083151502179055508173ffffffffffffffffffffffffffffffffffffffff168373ffffffffffffffffffffffffffffffffffffffff167f17307eab39ab6107e8899845ad3d59bd9653f200f220920489ca2b5937696c31836040516111939190612460565b60405180910390a3505050565b6111ab848484610cf2565b6111b78484848461154b565b6111f6576040517f08c379a00000000000000000000000000000000000000000000000000000000081526004016111ed906130cc565b60405180910390fd5b50505050565b606061120782610b51565b6000600a6000848152602001908152602001600020805461122790612a92565b80601f016020809104026020016040519081016040528092919081815260200182805461125390612a92565b80156112a05780601f10611275576101008083540402835291602001916112a0565b820191906000526020600020905b81548152906001019060200180831161128357829003601f168201915b5050505050905060006112b16116d2565b905060008151036112c6578192505050611309565b6000825111156112fb5780826040516020016112e3929190613128565b60405160208183030381529060405292505050611309565b611304846116e9565b925050505b919050565b600081600001549050919050565b6001816000016000828254019250508190555050565b61134c828260405180602001604052806000815250611751565b5050565b6113598261149f565b611398576040517f08c379a000000000000000000000000000000000000000000000000000000000815260040161138f906131be565b60405180910390fd5b80600a600084815260200190815260200160002090816113b8919061338a565b505050565b60007f80ac58cd000000000000000000000000000000000000000000000000000000007bffffffffffffffffffffffffffffffffffffffffffffffffffffffff1916827bffffffffffffffffffffffffffffffffffffffffffffffffffffffff1916148061148857507f5b5e139f000000000000000000000000000000000000000000000000000000007bffffffffffffffffffffffffffffffffffffffffffffffffffffffff1916827bffffffffffffffffffffffffffffffffffffffffffffffffffffffff1916145b806114985750611497826117ac565b5b9050919050565b60008073ffffffffffffffffffffffffffffffffffffffff166114c183610ff7565b73ffffffffffffffffffffffffffffffffffffffff1614159050919050565b6114ec84848484611816565b50505050565b50505050565b61150181611974565b6000600a6000838152602001908152602001600020805461152190612a92565b90501461154857600a60008281526020019081526020016000206000611547919061234f565b5b50565b600061156c8473ffffffffffffffffffffffffffffffffffffffff16611ac2565b156116c5578373ffffffffffffffffffffffffffffffffffffffff1663150b7a02611595610b9c565b8786866040518563ffffffff1660e01b81526004016115b794939291906134b1565b6020604051808303816000875af19250505080156115f357506040513d601f19601f820116820180604052508101906115f09190613512565b60015b611675573d8060008114611623576040519150601f19603f3d011682016040523d82523d6000602084013e611628565b606091505b50600081510361166d576040517f08c379a0000000000000000000000000000000000000000000000000000000008152600401611664906130cc565b60405180910390fd5b805181602001fd5b63150b7a0260e01b7bffffffffffffffffffffffffffffffffffffffffffffffffffffffff1916817bffffffffffffffffffffffffffffffffffffffffffffffffffffffff1916149150506116ca565b600190505b949350505050565b606060405180602001604052806000815250905090565b60606116f482610b51565b60006116fe6116d2565b9050600081511161171e5760405180602001604052806000815250611749565b8061172884611ae5565b604051602001611739929190613128565b6040516020818303038152906040525b915050919050565b61175b8383611bb3565b611768600084848461154b565b6117a7576040517f08c379a000000000000000000000000000000000000000000000000000000000815260040161179e906130cc565b60405180910390fd5b505050565b60007f01ffc9a7000000000000000000000000000000000000000000000000000000007bffffffffffffffffffffffffffffffffffffffffffffffffffffffff1916827bffffffffffffffffffffffffffffffffffffffffffffffffffffffff1916149050919050565b61182284848484611dd0565b6001811115611866576040517f08c379a000000000000000000000000000000000000000000000000000000000815260040161185d906135b1565b60405180910390fd5b6000829050600073ffffffffffffffffffffffffffffffffffffffff168573ffffffffffffffffffffffffffffffffffffffff16036118ad576118a881611ef6565b6118ec565b8373ffffffffffffffffffffffffffffffffffffffff168573ffffffffffffffffffffffffffffffffffffffff16146118eb576118ea8582611f3f565b5b5b600073ffffffffffffffffffffffffffffffffffffffff168473ffffffffffffffffffffffffffffffffffffffff160361192e57611929816120ac565b61196d565b8473ffffffffffffffffffffffffffffffffffffffff168473ffffffffffffffffffffffffffffffffffffffff161461196c5761196b848261217d565b5b5b5050505050565b600061197f826107b9565b905061198f8160008460016114e0565b611998826107b9565b90506004600083815260200190815260200160002060006101000a81549073ffffffffffffffffffffffffffffffffffffffff02191690556001600360008373ffffffffffffffffffffffffffffffffffffffff1673ffffffffffffffffffffffffffffffffffffffff168152602001908152602001600020600082825403925050819055506002600083815260200190815260200160002060006101000a81549073ffffffffffffffffffffffffffffffffffffffff021916905581600073ffffffffffffffffffffffffffffffffffffffff168273ffffffffffffffffffffffffffffffffffffffff167fddf252ad1be2c89b69c2b068fc378daa952ba7f163c4a11628f55a4df523b3ef60405160405180910390a4611abe8160008460016114f2565b5050565b6000808273ffffffffffffffffffffffffffffffffffffffff163b119050919050565b606060006001611af4846121fc565b01905060008167ffffffffffffffff811115611b1357611b12612778565b5b6040519080825280601f01601f191660200182016040528015611b455781602001600182028036833780820191505090505b509050600082602001820190505b600115611ba8578080600190039150507f3031323334353637383961626364656600000000000000000000000000000000600a86061a8153600a8581611b9c57611b9b6135d1565b5b04945060008503611b53575b819350505050919050565b600073ffffffffffffffffffffffffffffffffffffffff168273ffffffffffffffffffffffffffffffffffffffff1603611c22576040517f08c379a0000000000000000000000000000000000000000000000000000000008152600401611c199061364c565b60405180910390fd5b611c2b8161149f565b15611c6b576040517f08c379a0000000000000000000000000000000000000000000000000000000008152600401611c62906136b8565b60405180910390fd5b611c796000838360016114e0565b611c828161149f565b15611cc2576040517f08c379a0000000000000000000000000000000000000000000000000000000008152600401611cb9906136b8565b60405180910390fd5b6001600360008473ffffffffffffffffffffffffffffffffffffffff1673ffffffffffffffffffffffffffffffffffffffff16815260200190815260200160002060008282540192505081905550816002600083815260200190815260200160002060006101000a81548173ffffffffffffffffffffffffffffffffffffffff021916908373ffffffffffffffffffffffffffffffffffffffff160217905550808273ffffffffffffffffffffffffffffffffffffffff16600073ffffffffffffffffffffffffffffffffffffffff167fddf252ad1be2c89b69c2b068fc378daa952ba7f163c4a11628f55a4df523b3ef60405160405180910390a4611dcc6000838360016114f2565b5050565b6001811115611ef057600073ffffffffffffffffffffffffffffffffffffffff168473ffffffffffffffffffffffffffffffffffffffff1614611e645780600360008673ffffffffffffffffffffffffffffffffffffffff1673ffffffffffffffffffffffffffffffffffffffff1681526020019081526020016000206000828254611e5c9190613707565b925050819055505b600073ffffffffffffffffffffffffffffffffffffffff168373ffffffffffffffffffffffffffffffffffffffff1614611eef5780600360008573ffffffffffffffffffffffffffffffffffffffff1673ffffffffffffffffffffffffffffffffffffffff1681526020019081526020016000206000828254611ee7919061373b565b925050819055505b5b50505050565b6008805490506009600083815260200190815260200160002081905550600881908060018154018082558091505060019003906000526020600020016000909190919091505550565b60006001611f4c8461083f565b611f569190613707565b905060006007600084815260200190815260200160002054905081811461203b576000600660008673ffffffffffffffffffffffffffffffffffffffff1673ffffffffffffffffffffffffffffffffffffffff168152602001908152602001600020600084815260200190815260200160002054905080600660008773ffffffffffffffffffffffffffffffffffffffff1673ffffffffffffffffffffffffffffffffffffffff168152602001908152602001600020600084815260200190815260200160002081905550816007600083815260200190815260200160002081905550505b6007600084815260200190815260200160002060009055600660008573ffffffffffffffffffffffffffffffffffffffff1673ffffffffffffffffffffffffffffffffffffffff16815260200190815260200160002060008381526020019081526020016000206000905550505050565b600060016008805490506120c09190613707565b90506000600960008481526020019081526020016000205490506000600883815481106120f0576120ef612d9d565b5b90600052602060002001549050806008838154811061211257612111612d9d565b5b9060005260206000200181905550816009600083815260200190815260200160002081905550600960008581526020019081526020016000206000905560088054806121615761216061376f565b5b6001900381819060005260206000200160009055905550505050565b60006121888361083f565b905081600660008573ffffffffffffffffffffffffffffffffffffffff1673ffffffffffffffffffffffffffffffffffffffff168152602001908152602001600020600083815260200190815260200160002081905550806007600084815260200190815260200160002081905550505050565b600080600090507a184f03e93ff9f4daa797ed6e38ed64bf6a1f010000000000000000831061225a577a184f03e93ff9f4daa797ed6e38ed64bf6a1f01000000000000000083816122505761224f6135d1565b5b0492506040810190505b6d04ee2d6d415b85acef81000000008310612297576d04ee2d6d415b85acef8100000000838161228d5761228c6135d1565b5b0492506020810190505b662386f26fc1000083106122c657662386f26fc1000083816122bc576122bb6135d1565b5b0492506010810190505b6305f5e10083106122ef576305f5e10083816122e5576122e46135d1565b5b0492506008810190505b612710831061231457612710838161230a576123096135d1565b5b0492506004810190505b60648310612337576064838161232d5761232c6135d1565b5b0492506002810190505b600a8310612346576001810190505b80915050919050565b50805461235b90612a92565b6000825580601f1061236d575061238c565b601f01602090049060005260206000209081019061238b919061238f565b5b50565b5b808211156123a8576000816000905550600101612390565b5090565b6000604051905090565b600080fd5b600080fd5b60007fffffffff0000000000000000000000000000000000000000000000000000000082169050919050565b6123f5816123c0565b811461240057600080fd5b50565b600081359050612412816123ec565b92915050565b60006020828403121561242e5761242d6123b6565b5b600061243c84828501612403565b91505092915050565b60008115159050919050565b61245a81612445565b82525050565b60006020820190506124756000830184612451565b92915050565b600081519050919050565b600082825260208201905092915050565b60005b838110156124b557808201518184015260208101905061249a565b60008484015250505050565b6000601f19601f8301169050919050565b60006124dd8261247b565b6124e78185612486565b93506124f7818560208601612497565b612500816124c1565b840191505092915050565b6000602082019050818103600083015261252581846124d2565b905092915050565b6000819050919050565b6125408161252d565b811461254b57600080fd5b50565b60008135905061255d81612537565b92915050565b600060208284031215612579576125786123b6565b5b60006125878482850161254e565b91505092915050565b600073ffffffffffffffffffffffffffffffffffffffff82169050919050565b60006125bb82612590565b9050919050565b6125cb816125b0565b82525050565b60006020820190506125e660008301846125c2565b92915050565b6125f5816125b0565b811461260057600080fd5b50565b600081359050612612816125ec565b92915050565b6000806040838503121561262f5761262e6123b6565b5b600061263d85828601612603565b925050602061264e8582860161254e565b9150509250929050565b6126618161252d565b82525050565b600060208201905061267c6000830184612658565b92915050565b60008060006060848603121561269b5761269a6123b6565b5b60006126a986828701612603565b93505060206126ba86828701612603565b92505060406126cb8682870161254e565b9150509250925092565b6000602082840312156126eb576126ea6123b6565b5b60006126f984828501612603565b91505092915050565b61270b81612445565b811461271657600080fd5b50565b60008135905061272881612702565b92915050565b60008060408385031215612745576127446123b6565b5b600061275385828601612603565b925050602061276485828601612719565b9150509250929050565b600080fd5b600080fd5b7f4e487b7100000000000000000000000000000000000000000000000000000000600052604160045260246000fd5b6127b0826124c1565b810181811067ffffffffffffffff821117156127cf576127ce612778565b5b80604052505050565b60006127e26123ac565b90506127ee82826127a7565b919050565b600067ffffffffffffffff82111561280e5761280d612778565b5b612817826124c1565b9050602081019050919050565b82818337600083830152505050565b6000612846612841846127f3565b6127d8565b90508281526020810184848401111561286257612861612773565b5b61286d848285612824565b509392505050565b600082601f83011261288a5761288961276e565b5b813561289a848260208601612833565b91505092915050565b600080600080608085870312156128bd576128bc6123b6565b5b60006128cb87828801612603565b94505060206128dc87828801612603565b93505060406128ed8782880161254e565b925050606085013567ffffffffffffffff81111561290e5761290d6123bb565b5b61291a87828801612875565b91505092959194509250565b600067ffffffffffffffff82111561294157612940612778565b5b61294a826124c1565b9050602081019050919050565b600061296a61296584612926565b6127d8565b90508281526020810184848401111561298657612985612773565b5b612991848285612824565b509392505050565b600082601f8301126129ae576129ad61276e565b5b81356129be848260208601612957565b91505092915050565b600080604083850312156129de576129dd6123b6565b5b60006129ec85828601612603565b925050602083013567ffffffffffffffff811115612a0d57612a0c6123bb565b5b612a1985828601612999565b9150509250929050565b60008060408385031215612a3a57612a396123b6565b5b6000612a4885828601612603565b9250506020612a5985828601612603565b9150509250929050565b7f4e487b7100000000000000000000000000000000000000000000000000000000600052602260045260246000fd5b60006002820490506001821680612aaa57607f821691505b602082108103612abd57612abc612a63565b5b50919050565b7f4552433732313a20617070726f76616c20746f2063757272656e74206f776e6560008201527f7200000000000000000000000000000000000000000000000000000000000000602082015250565b6000612b1f602183612486565b9150612b2a82612ac3565b604082019050919050565b60006020820190508181036000830152612b4e81612b12565b9050919050565b7f4552433732313a20617070726f76652063616c6c6572206973206e6f7420746f60008201527f6b656e206f776e6572206f7220617070726f76656420666f7220616c6c000000602082015250565b6000612bb1603d83612486565b9150612bbc82612b55565b604082019050919050565b60006020820190508181036000830152612be081612ba4565b9050919050565b7f4552433732313a2063616c6c6572206973206e6f7420746f6b656e206f776e6560008201527f72206f7220617070726f76656400000000000000000000000000000000000000602082015250565b6000612c43602d83612486565b9150612c4e82612be7565b604082019050919050565b60006020820190508181036000830152612c7281612c36565b9050919050565b7f455243373231456e756d657261626c653a206f776e657220696e646578206f7560008201527f74206f6620626f756e6473000000000000000000000000000000000000000000602082015250565b6000612cd5602b83612486565b9150612ce082612c79565b604082019050919050565b60006020820190508181036000830152612d0481612cc8565b9050919050565b7f455243373231456e756d657261626c653a20676c6f62616c20696e646578206f60008201527f7574206f6620626f756e64730000000000000000000000000000000000000000602082015250565b6000612d67602c83612486565b9150612d7282612d0b565b604082019050919050565b60006020820190508181036000830152612d9681612d5a565b9050919050565b7f4e487b7100000000000000000000000000000000000000000000000000000000600052603260045260246000fd5b7f4552433732313a20696e76616c696420746f6b656e2049440000000000000000600082015250565b6000612e02601883612486565b9150612e0d82612dcc565b602082019050919050565b60006020820190508181036000830152612e3181612df5565b9050919050565b7f4552433732313a2061646472657373207a65726f206973206e6f74206120766160008201527f6c6964206f776e65720000000000000000000000000000000000000000000000602082015250565b6000612e94602983612486565b9150612e9f82612e38565b604082019050919050565b60006020820190508181036000830152612ec381612e87565b9050919050565b7f4552433732313a207472616e736665722066726f6d20696e636f72726563742060008201527f6f776e6572000000000000000000000000000000000000000000000000000000602082015250565b6000612f26602583612486565b9150612f3182612eca565b604082019050919050565b60006020820190508181036000830152612f5581612f19565b9050919050565b7f4552433732313a207472616e7366657220746f20746865207a65726f2061646460008201527f7265737300000000000000000000000000000000000000000000000000000000602082015250565b6000612fb8602483612486565b9150612fc382612f5c565b604082019050919050565b60006020820190508181036000830152612fe781612fab565b9050919050565b7f4552433732313a20617070726f766520746f2063616c6c657200000000000000600082015250565b6000613024601983612486565b915061302f82612fee565b602082019050919050565b6000602082019050818103600083015261305381613017565b9050919050565b7f4552433732313a207472616e7366657220746f206e6f6e20455243373231526560008201527f63656976657220696d706c656d656e7465720000000000000000000000000000602082015250565b60006130b6603283612486565b91506130c18261305a565b604082019050919050565b600060208201905081810360008301526130e5816130a9565b9050919050565b600081905092915050565b60006131028261247b565b61310c81856130ec565b935061311c818560208601612497565b80840191505092915050565b600061313482856130f7565b915061314082846130f7565b91508190509392505050565b7f45524337323155524953746f726167653a2055524920736574206f66206e6f6e60008201527f6578697374656e7420746f6b656e000000000000000000000000000000000000602082015250565b60006131a8602e83612486565b91506131b38261314c565b604082019050919050565b600060208201905081810360008301526131d78161319b565b9050919050565b60008190508160005260206000209050919050565b60006020601f8301049050919050565b600082821b905092915050565b6000600883026132407fffffffffffffffffffffffffffffffffffffffffffffffffffffffffffffffff82613203565b61324a8683613203565b95508019841693508086168417925050509392505050565b6000819050919050565b600061328761328261327d8461252d565b613262565b61252d565b9050919050565b6000819050919050565b6132a18361326c565b6132b56132ad8261328e565b848454613210565b825550505050565b600090565b6132ca6132bd565b6132d5818484613298565b505050565b5b818110156132f9576132ee6000826132c2565b6001810190506132db565b5050565b601f82111561333e5761330f816131de565b613318846131f3565b81016020851015613327578190505b61333b613333856131f3565b8301826132da565b50505b505050565b600082821c905092915050565b600061336160001984600802613343565b1980831691505092915050565b600061337a8383613350565b9150826002028217905092915050565b6133938261247b565b67ffffffffffffffff8111156133ac576133ab612778565b5b6133b68254612a92565b6133c18282856132fd565b600060209050601f8311600181146133f457600084156133e2578287015190505b6133ec858261336e565b865550613454565b601f198416613402866131de565b60005b8281101561342a57848901518255600182019150602085019450602081019050613405565b868310156134475784890151613443601f891682613350565b8355505b6001600288020188555050505b505050505050565b600081519050919050565b600082825260208201905092915050565b60006134838261345c565b61348d8185613467565b935061349d818560208601612497565b6134a6816124c1565b840191505092915050565b60006080820190506134c660008301876125c2565b6134d360208301866125c2565b6134e06040830185612658565b81810360608301526134f28184613478565b905095945050505050565b60008151905061350c816123ec565b92915050565b600060208284031215613528576135276123b6565b5b6000613536848285016134fd565b91505092915050565b7f455243373231456e756d657261626c653a20636f6e736563757469766520747260008201527f616e7366657273206e6f7420737570706f727465640000000000000000000000602082015250565b600061359b603583612486565b91506135a68261353f565b604082019050919050565b600060208201905081810360008301526135ca8161358e565b9050919050565b7f4e487b7100000000000000000000000000000000000000000000000000000000600052601260045260246000fd5b7f4552433732313a206d696e7420746f20746865207a65726f2061646472657373600082015250565b6000613636602083612486565b915061364182613600565b602082019050919050565b6000602082019050818103600083015261366581613629565b9050919050565b7f4552433732313a20746f6b656e20616c7265616479206d696e74656400000000600082015250565b60006136a2601c83612486565b91506136ad8261366c565b602082019050919050565b600060208201905081810360008301526136d181613695565b9050919050565b7f4e487b7100000000000000000000000000000000000000000000000000000000600052601160045260246000fd5b60006137128261252d565b915061371d8361252d565b9250828203905081811115613735576137346136d8565b5b92915050565b60006137468261252d565b91506137518361252d565b9250828201905080821115613769576137686136d8565b5b92915050565b7f4e487b7100000000000000000000000000000000000000000000000000000000600052603160045260246000fdfea264697066735822122095f0523e2759b32fa143afeee32d8cc99c8a07d17df2a6176b71239f1112306b64736f6c63430008110033",
  "linkReferences": {},
  "deployedLinkReferences": {}
}